{
  "_format": "hh-sol-artifact-1",
  "contractName": "bridgeCustody",
  "sourceName": "contracts/BridgeCustody.sol",
  "abi": [
    {
      "inputs": [
        {
          "internalType": "contract ERC721Enumerable",
          "name": "_nft",
          "type": "address"
        },
        {
          "internalType": "contract IERC20",
          "name": "_paytoken",
          "type": "address"
        }
      ],
      "stateMutability": "nonpayable",
      "type": "constructor"
    },
    {
      "anonymous": false,
      "inputs": [
        {
          "indexed": true,
          "internalType": "uint256",
          "name": "tokenId",
          "type": "uint256"
        },
        {
          "indexed": false,
          "internalType": "address",
          "name": "holder",
          "type": "address"
        }
      ],
      "name": "NFTCustody",
      "type": "event"
    },
    {
      "anonymous": false,
      "inputs": [
        {
          "indexed": true,
          "internalType": "address",
          "name": "previousOwner",
          "type": "address"
        },
        {
          "indexed": true,
          "internalType": "address",
          "name": "newOwner",
          "type": "address"
        }
      ],
      "name": "OwnershipTransferred",
      "type": "event"
    },
    {
      "inputs": [],
      "name": "costCustom",
      "outputs": [
        {
          "internalType": "uint256",
          "name": "",
          "type": "uint256"
        }
      ],
      "stateMutability": "view",
      "type": "function"
    },
    {
      "inputs": [],
      "name": "costNative",
      "outputs": [
        {
          "internalType": "uint256",
          "name": "",
          "type": "uint256"
        }
      ],
      "stateMutability": "view",
      "type": "function"
    },
    {
      "inputs": [
        {
          "internalType": "uint256",
          "name": "tokenId",
          "type": "uint256"
        }
      ],
      "name": "emergencyDelete",
      "outputs": [],
      "stateMutability": "nonpayable",
      "type": "function"
    },
    {
      "inputs": [
        {
          "internalType": "uint256",
          "name": "",
          "type": "uint256"
        }
      ],
      "name": "holdCustody",
      "outputs": [
        {
          "internalType": "uint256",
          "name": "tokenId",
          "type": "uint256"
        },
        {
          "internalType": "address",
          "name": "holder",
          "type": "address"
        }
      ],
      "stateMutability": "view",
      "type": "function"
    },
    {
      "inputs": [
        {
          "internalType": "address",
          "name": "",
          "type": "address"
        },
        {
          "internalType": "address",
          "name": "from",
          "type": "address"
        },
        {
          "internalType": "uint256",
          "name": "",
          "type": "uint256"
        },
        {
          "internalType": "bytes",
          "name": "",
          "type": "bytes"
        }
      ],
      "name": "onERC721Received",
      "outputs": [
        {
          "internalType": "bytes4",
          "name": "",
          "type": "bytes4"
        }
      ],
      "stateMutability": "pure",
      "type": "function"
    },
    {
      "inputs": [],
      "name": "owner",
      "outputs": [
        {
          "internalType": "address",
          "name": "",
          "type": "address"
        }
      ],
      "stateMutability": "view",
      "type": "function"
    },
    {
      "inputs": [
        {
          "internalType": "uint256",
          "name": "tokenId",
          "type": "uint256"
        },
        {
          "internalType": "address",
          "name": "wallet",
          "type": "address"
        }
      ],
      "name": "releaseNFT",
      "outputs": [],
      "stateMutability": "nonpayable",
      "type": "function"
    },
    {
      "inputs": [],
      "name": "renounceOwnership",
      "outputs": [],
      "stateMutability": "nonpayable",
      "type": "function"
    },
    {
      "inputs": [
        {
          "internalType": "uint256",
          "name": "tokenId",
          "type": "uint256"
        }
      ],
      "name": "retainNFTC",
      "outputs": [],
      "stateMutability": "payable",
      "type": "function"
    },
    {
      "inputs": [
        {
          "internalType": "uint256",
          "name": "tokenId",
          "type": "uint256"
        }
      ],
      "name": "retainNFTN",
      "outputs": [],
      "stateMutability": "payable",
      "type": "function"
    },
    {
      "inputs": [
        {
          "internalType": "uint256",
          "name": "tokenId",
          "type": "uint256"
        }
      ],
      "name": "retainNew",
      "outputs": [],
      "stateMutability": "nonpayable",
      "type": "function"
    },
    {
      "inputs": [
        {
          "internalType": "address",
          "name": "newOwner",
          "type": "address"
        }
      ],
      "name": "transferOwnership",
      "outputs": [],
      "stateMutability": "nonpayable",
      "type": "function"
    },
    {
      "inputs": [
        {
          "internalType": "uint256",
          "name": "tokenId",
          "type": "uint256"
        },
        {
          "internalType": "address",
          "name": "newHolder",
          "type": "address"
        }
      ],
      "name": "updateOwner",
      "outputs": [],
      "stateMutability": "nonpayable",
      "type": "function"
    },
    {
      "inputs": [],
      "name": "withdrawCustom",
      "outputs": [],
      "stateMutability": "payable",
      "type": "function"
    },
    {
      "inputs": [],
      "name": "withdrawNative",
      "outputs": [],
      "stateMutability": "payable",
      "type": "function"
    }
  ],
  "bytecode": "0x6080604052670de0b6b3a76400006002556544364c5bb0006003553480156200002757600080fd5b5060405162001d0638038062001d0683398181016040528101906200004d919062000290565b60016000819055506200007562000069620000ff60201b60201c565b6200010760201b60201c565b81600560006101000a81548173ffffffffffffffffffffffffffffffffffffffff021916908373ffffffffffffffffffffffffffffffffffffffff16021790555080600660006101000a81548173ffffffffffffffffffffffffffffffffffffffff021916908373ffffffffffffffffffffffffffffffffffffffff1602179055505050620002d7565b600033905090565b6000600160009054906101000a900473ffffffffffffffffffffffffffffffffffffffff16905081600160006101000a81548173ffffffffffffffffffffffffffffffffffffffff021916908373ffffffffffffffffffffffffffffffffffffffff1602179055508173ffffffffffffffffffffffffffffffffffffffff168173ffffffffffffffffffffffffffffffffffffffff167f8be0079c531659141344cd1fd0a4f28419497f9722a3daafe3b4186f6b6457e060405160405180910390a35050565b600080fd5b600073ffffffffffffffffffffffffffffffffffffffff82169050919050565b6000620001ff82620001d2565b9050919050565b60006200021382620001f2565b9050919050565b620002258162000206565b81146200023157600080fd5b50565b60008151905062000245816200021a565b92915050565b60006200025882620001f2565b9050919050565b6200026a816200024b565b81146200027657600080fd5b50565b6000815190506200028a816200025f565b92915050565b60008060408385031215620002aa57620002a9620001cd565b5b6000620002ba8582860162000234565b9250506020620002cd8582860162000279565b9150509250929050565b611a1f80620002e76000396000f3fe6080604052600436106100e75760003560e01c80637192711f1161008a578063a8643a2311610059578063a8643a231461026a578063ca32a1f714610295578063dd39bd21146102b1578063f2fde38b146102ef576100e7565b80637192711f146101f05780638da5cb5b14610219578063950fa5f4146102445780639dc961051461024e576100e7565b806350431ce4116100c657806350431ce41461017b57806353ef035d1461018557806363a3fb43146101b0578063715018a6146101d9576100e7565b8062d90cd9146100ec578063150b7a021461011557806344509d3e14610152575b600080fd5b3480156100f857600080fd5b50610113600480360381019061010e9190611297565b610318565b005b34801561012157600080fd5b5061013c60048036038101906101379190611387565b610370565b604051610149919061144a565b60405180910390f35b34801561015e57600080fd5b5061017960048036038101906101749190611465565b6103f3565b005b6101836104dd565b005b34801561019157600080fd5b5061019a610525565b6040516101a791906114b4565b60405180910390f35b3480156101bc57600080fd5b506101d760048036038101906101d29190611297565b61052b565b005b3480156101e557600080fd5b506101ee6106f2565b005b3480156101fc57600080fd5b5061021760048036038101906102129190611465565b610706565b005b34801561022557600080fd5b5061022e6107ec565b60405161023b91906114de565b60405180910390f35b61024c610816565b005b61026860048036038101906102639190611297565b61095c565b005b34801561027657600080fd5b5061027f610cd1565b60405161028c91906114b4565b60405180910390f35b6102af60048036038101906102aa9190611297565b610cd7565b005b3480156102bd57600080fd5b506102d860048036038101906102d39190611297565b610feb565b6040516102e69291906114f9565b60405180910390f35b3480156102fb57600080fd5b5061031660048036038101906103119190611522565b61102f565b005b6103206110b2565b600460008281526020019081526020016000206000808201600090556001820160006101000a81549073ffffffffffffffffffffffffffffffffffffffff0219169055505061036d611101565b50565b60008073ffffffffffffffffffffffffffffffffffffffff168573ffffffffffffffffffffffffffffffffffffffff16146103e0576040517f08c379a00000000000000000000000000000000000000000000000000000000081526004016103d7906115ac565b60405180910390fd5b63150b7a0260e01b905095945050505050565b6103fb6110b2565b600560009054906101000a900473ffffffffffffffffffffffffffffffffffffffff1673ffffffffffffffffffffffffffffffffffffffff166323b872dd3083856040518463ffffffff1660e01b815260040161045a939291906115cc565b600060405180830381600087803b15801561047457600080fd5b505af1158015610488573d6000803e3d6000fd5b50505050600460008381526020019081526020016000206000808201600090556001820160006101000a81549073ffffffffffffffffffffffffffffffffffffffff021916905550506104d9611101565b5050565b6104e561110b565b3373ffffffffffffffffffffffffffffffffffffffff166108fc479081150290604051600060405180830381858888f1935050505061052357600080fd5b565b60025481565b6105336110b2565b600060046000838152602001908152602001600020600001541461058c576040517f08c379a00000000000000000000000000000000000000000000000000000000081526004016105839061164f565b60405180910390fd5b60405180604001604052808281526020013373ffffffffffffffffffffffffffffffffffffffff16815250600460008381526020019081526020016000206000820151816000015560208201518160010160006101000a81548173ffffffffffffffffffffffffffffffffffffffff021916908373ffffffffffffffffffffffffffffffffffffffff160217905550905050600560009054906101000a900473ffffffffffffffffffffffffffffffffffffffff1673ffffffffffffffffffffffffffffffffffffffff166323b872dd3330846040518463ffffffff1660e01b815260040161067d939291906115cc565b600060405180830381600087803b15801561069757600080fd5b505af11580156106ab573d6000803e3d6000fd5b50505050807f2eae7534e9f0d5d8a801dd79515d22a9c36f0b691692ca20f5bc04b94b055edc336040516106df91906114de565b60405180910390a26106ef611101565b50565b6106fa61110b565b6107046000611189565b565b61070e6110b2565b61071661110b565b60405180604001604052808381526020018273ffffffffffffffffffffffffffffffffffffffff16815250600460008481526020019081526020016000206000820151816000015560208201518160010160006101000a81548173ffffffffffffffffffffffffffffffffffffffff021916908373ffffffffffffffffffffffffffffffffffffffff160217905550905050817f2eae7534e9f0d5d8a801dd79515d22a9c36f0b691692ca20f5bc04b94b055edc826040516107d891906114de565b60405180910390a26107e8611101565b5050565b6000600160009054906101000a900473ffffffffffffffffffffffffffffffffffffffff16905090565b61081e61110b565b600660009054906101000a900473ffffffffffffffffffffffffffffffffffffffff1673ffffffffffffffffffffffffffffffffffffffff1663a9059cbb33600660009054906101000a900473ffffffffffffffffffffffffffffffffffffffff1673ffffffffffffffffffffffffffffffffffffffff166370a08231306040518263ffffffff1660e01b81526004016108b891906114de565b602060405180830381865afa1580156108d5573d6000803e3d6000fd5b505050506040513d601f19601f820116820180604052508101906108f99190611684565b6040518363ffffffff1660e01b81526004016109169291906116b1565b6020604051808303816000875af1158015610935573d6000803e3d6000fd5b505050506040513d601f19601f820116820180604052508101906109599190611712565b50565b6109646110b2565b3373ffffffffffffffffffffffffffffffffffffffff16600560009054906101000a900473ffffffffffffffffffffffffffffffffffffffff1673ffffffffffffffffffffffffffffffffffffffff16636352211e836040518263ffffffff1660e01b81526004016109d691906114b4565b602060405180830381865afa1580156109f3573d6000803e3d6000fd5b505050506040513d601f19601f82011682018060405250810190610a179190611754565b73ffffffffffffffffffffffffffffffffffffffff1614610a6d576040517f08c379a0000000000000000000000000000000000000000000000000000000008152600401610a64906117cd565b60405180910390fd5b6000600460008381526020019081526020016000206000015414610ac6576040517f08c379a0000000000000000000000000000000000000000000000000000000008152600401610abd9061164f565b60405180910390fd5b600660009054906101000a900473ffffffffffffffffffffffffffffffffffffffff1673ffffffffffffffffffffffffffffffffffffffff166323b872dd33306002546040518463ffffffff1660e01b8152600401610b27939291906115cc565b6020604051808303816000875af1158015610b46573d6000803e3d6000fd5b505050506040513d601f19601f82011682018060405250810190610b6a9190611712565b5060405180604001604052808281526020013373ffffffffffffffffffffffffffffffffffffffff16815250600460008381526020019081526020016000206000820151816000015560208201518160010160006101000a81548173ffffffffffffffffffffffffffffffffffffffff021916908373ffffffffffffffffffffffffffffffffffffffff160217905550905050600560009054906101000a900473ffffffffffffffffffffffffffffffffffffffff1673ffffffffffffffffffffffffffffffffffffffff166323b872dd3330846040518463ffffffff1660e01b8152600401610c5c939291906115cc565b600060405180830381600087803b158015610c7657600080fd5b505af1158015610c8a573d6000803e3d6000fd5b50505050807f2eae7534e9f0d5d8a801dd79515d22a9c36f0b691692ca20f5bc04b94b055edc33604051610cbe91906114de565b60405180910390a2610cce611101565b50565b60035481565b610cdf6110b2565b6003543414610d23576040517f08c379a0000000000000000000000000000000000000000000000000000000008152600401610d1a9061185f565b60405180910390fd5b3373ffffffffffffffffffffffffffffffffffffffff16600560009054906101000a900473ffffffffffffffffffffffffffffffffffffffff1673ffffffffffffffffffffffffffffffffffffffff16636352211e836040518263ffffffff1660e01b8152600401610d9591906114b4565b602060405180830381865afa158015610db2573d6000803e3d6000fd5b505050506040513d601f19601f82011682018060405250810190610dd69190611754565b73ffffffffffffffffffffffffffffffffffffffff1614610e2c576040517f08c379a0000000000000000000000000000000000000000000000000000000008152600401610e23906117cd565b60405180910390fd5b6000600460008381526020019081526020016000206000015414610e85576040517f08c379a0000000000000000000000000000000000000000000000000000000008152600401610e7c9061164f565b60405180910390fd5b60405180604001604052808281526020013373ffffffffffffffffffffffffffffffffffffffff16815250600460008381526020019081526020016000206000820151816000015560208201518160010160006101000a81548173ffffffffffffffffffffffffffffffffffffffff021916908373ffffffffffffffffffffffffffffffffffffffff160217905550905050600560009054906101000a900473ffffffffffffffffffffffffffffffffffffffff1673ffffffffffffffffffffffffffffffffffffffff166323b872dd3330846040518463ffffffff1660e01b8152600401610f76939291906115cc565b600060405180830381600087803b158015610f9057600080fd5b505af1158015610fa4573d6000803e3d6000fd5b50505050807f2eae7534e9f0d5d8a801dd79515d22a9c36f0b691692ca20f5bc04b94b055edc33604051610fd891906114de565b60405180910390a2610fe8611101565b50565b60046020528060005260406000206000915090508060000154908060010160009054906101000a900473ffffffffffffffffffffffffffffffffffffffff16905082565b61103761110b565b600073ffffffffffffffffffffffffffffffffffffffff168173ffffffffffffffffffffffffffffffffffffffff16036110a6576040517f08c379a000000000000000000000000000000000000000000000000000000000815260040161109d906118f1565b60405180910390fd5b6110af81611189565b50565b6002600054036110f7576040517f08c379a00000000000000000000000000000000000000000000000000000000081526004016110ee9061195d565b60405180910390fd5b6002600081905550565b6001600081905550565b61111361124f565b73ffffffffffffffffffffffffffffffffffffffff166111316107ec565b73ffffffffffffffffffffffffffffffffffffffff1614611187576040517f08c379a000000000000000000000000000000000000000000000000000000000815260040161117e906119c9565b60405180910390fd5b565b6000600160009054906101000a900473ffffffffffffffffffffffffffffffffffffffff16905081600160006101000a81548173ffffffffffffffffffffffffffffffffffffffff021916908373ffffffffffffffffffffffffffffffffffffffff1602179055508173ffffffffffffffffffffffffffffffffffffffff168173ffffffffffffffffffffffffffffffffffffffff167f8be0079c531659141344cd1fd0a4f28419497f9722a3daafe3b4186f6b6457e060405160405180910390a35050565b600033905090565b600080fd5b600080fd5b6000819050919050565b61127481611261565b811461127f57600080fd5b50565b6000813590506112918161126b565b92915050565b6000602082840312156112ad576112ac611257565b5b60006112bb84828501611282565b91505092915050565b600073ffffffffffffffffffffffffffffffffffffffff82169050919050565b60006112ef826112c4565b9050919050565b6112ff816112e4565b811461130a57600080fd5b50565b60008135905061131c816112f6565b92915050565b600080fd5b600080fd5b600080fd5b60008083601f84011261134757611346611322565b5b8235905067ffffffffffffffff81111561136457611363611327565b5b6020830191508360018202830111156113805761137f61132c565b5b9250929050565b6000806000806000608086880312156113a3576113a2611257565b5b60006113b18882890161130d565b95505060206113c28882890161130d565b94505060406113d388828901611282565b935050606086013567ffffffffffffffff8111156113f4576113f361125c565b5b61140088828901611331565b92509250509295509295909350565b60007fffffffff0000000000000000000000000000000000000000000000000000000082169050919050565b6114448161140f565b82525050565b600060208201905061145f600083018461143b565b92915050565b6000806040838503121561147c5761147b611257565b5b600061148a85828601611282565b925050602061149b8582860161130d565b9150509250929050565b6114ae81611261565b82525050565b60006020820190506114c960008301846114a5565b92915050565b6114d8816112e4565b82525050565b60006020820190506114f360008301846114cf565b92915050565b600060408201905061150e60008301856114a5565b61151b60208301846114cf565b9392505050565b60006020828403121561153857611537611257565b5b60006115468482850161130d565b91505092915050565b600082825260208201905092915050565b7f43616e6e6f742052656365697665204e465473204469726563746c7900000000600082015250565b6000611596601c8361154f565b91506115a182611560565b602082019050919050565b600060208201905081810360008301526115c581611589565b9050919050565b60006060820190506115e160008301866114cf565b6115ee60208301856114cf565b6115fb60408301846114a5565b949350505050565b7f4e465420616c72656164792073746f7265640000000000000000000000000000600082015250565b600061163960128361154f565b915061164482611603565b602082019050919050565b600060208201905081810360008301526116688161162c565b9050919050565b60008151905061167e8161126b565b92915050565b60006020828403121561169a57611699611257565b5b60006116a88482850161166f565b91505092915050565b60006040820190506116c660008301856114cf565b6116d360208301846114a5565b9392505050565b60008115159050919050565b6116ef816116da565b81146116fa57600080fd5b50565b60008151905061170c816116e6565b92915050565b60006020828403121561172857611727611257565b5b6000611736848285016116fd565b91505092915050565b60008151905061174e816112f6565b92915050565b60006020828403121561176a57611769611257565b5b60006117788482850161173f565b91505092915050565b7f4e4654206e6f7420796f75727300000000000000000000000000000000000000600082015250565b60006117b7600d8361154f565b91506117c282611781565b602082019050919050565b600060208201905081810360008301526117e6816117aa565b9050919050565b7f4e6f7420656e6f7567682062616c616e636520746f20636f6d706c657465207460008201527f72616e73616374696f6e2e000000000000000000000000000000000000000000602082015250565b6000611849602b8361154f565b9150611854826117ed565b604082019050919050565b600060208201905081810360008301526118788161183c565b9050919050565b7f4f776e61626c653a206e6577206f776e657220697320746865207a65726f206160008201527f6464726573730000000000000000000000000000000000000000000000000000602082015250565b60006118db60268361154f565b91506118e68261187f565b604082019050919050565b6000602082019050818103600083015261190a816118ce565b9050919050565b7f5265656e7472616e637947756172643a207265656e7472616e742063616c6c00600082015250565b6000611947601f8361154f565b915061195282611911565b602082019050919050565b600060208201905081810360008301526119768161193a565b9050919050565b7f4f776e61626c653a2063616c6c6572206973206e6f7420746865206f776e6572600082015250565b60006119b360208361154f565b91506119be8261197d565b602082019050919050565b600060208201905081810360008301526119e2816119a6565b905091905056fea26469706673582212204920bfa3bdab58779eb6bae4bb78d4cf5b3cfd3d2dde9b13a0be697c83a0d37264736f6c63430008110033",
  "linkReferences": {},
  "deployedLinkReferences": {}
}