{
  "_format": "hh-sol-artifact-1",
  "contractName": "GravityNFT",
  "sourceName": "contracts/GravityNFT.sol",
  "abi": [
    {
      "inputs": [
        {
          "internalType": "address",
          "name": "marketContract",
          "type": "address"
        }
      ],
      "stateMutability": "nonpayable",
      "type": "constructor"
    },
    {
      "anonymous": false,
      "inputs": [
        {
          "indexed": true,
          "internalType": "address",
          "name": "owner",
          "type": "address"
        },
        {
          "indexed": true,
          "internalType": "address",
          "name": "approved",
          "type": "address"
        },
        {
          "indexed": true,
          "internalType": "uint256",
          "name": "tokenId",
          "type": "uint256"
        }
      ],
      "name": "Approval",
      "type": "event"
    },
    {
      "anonymous": false,
      "inputs": [
        {
          "indexed": true,
          "internalType": "address",
          "name": "owner",
          "type": "address"
        },
        {
          "indexed": true,
          "internalType": "address",
          "name": "operator",
          "type": "address"
        },
        {
          "indexed": false,
          "internalType": "bool",
          "name": "approved",
          "type": "bool"
        }
      ],
      "name": "ApprovalForAll",
      "type": "event"
    },
    {
      "anonymous": false,
      "inputs": [
        {
          "indexed": true,
          "internalType": "address",
          "name": "previousOwner",
          "type": "address"
        },
        {
          "indexed": true,
          "internalType": "address",
          "name": "newOwner",
          "type": "address"
        }
      ],
      "name": "OwnershipTransferred",
      "type": "event"
    },
    {
      "anonymous": false,
      "inputs": [
        {
          "indexed": true,
          "internalType": "address",
          "name": "from",
          "type": "address"
        },
        {
          "indexed": true,
          "internalType": "address",
          "name": "to",
          "type": "address"
        },
        {
          "indexed": true,
          "internalType": "uint256",
          "name": "tokenId",
          "type": "uint256"
        }
      ],
      "name": "Transfer",
      "type": "event"
    },
    {
      "inputs": [],
      "name": "_tokenIds",
      "outputs": [
        {
          "internalType": "uint256",
          "name": "_value",
          "type": "uint256"
        }
      ],
      "stateMutability": "view",
      "type": "function"
    },
    {
      "inputs": [
        {
          "internalType": "address",
          "name": "to",
          "type": "address"
        },
        {
          "internalType": "uint256",
          "name": "tokenId",
          "type": "uint256"
        }
      ],
      "name": "approve",
      "outputs": [],
      "stateMutability": "nonpayable",
      "type": "function"
    },
    {
      "inputs": [
        {
          "internalType": "address",
          "name": "owner",
          "type": "address"
        }
      ],
      "name": "balanceOf",
      "outputs": [
        {
          "internalType": "uint256",
          "name": "",
          "type": "uint256"
        }
      ],
      "stateMutability": "view",
      "type": "function"
    },
    {
      "inputs": [
        {
          "internalType": "address",
          "name": "to",
          "type": "address"
        },
        {
          "internalType": "uint256",
          "name": "tokenId",
          "type": "uint256"
        },
        {
          "internalType": "string",
          "name": "tokenURI",
          "type": "string"
        },
        {
          "internalType": "uint256",
          "name": "ts",
          "type": "uint256"
        },
        {
          "internalType": "uint256",
          "name": "wPeriod",
          "type": "uint256"
        }
      ],
      "name": "bridgeMint",
      "outputs": [],
      "stateMutability": "nonpayable",
      "type": "function"
    },
    {
      "inputs": [],
      "name": "cost",
      "outputs": [
        {
          "internalType": "uint256",
          "name": "",
          "type": "uint256"
        }
      ],
      "stateMutability": "view",
      "type": "function"
    },
    {
      "inputs": [
        {
          "internalType": "string",
          "name": "tokenURI",
          "type": "string"
        },
        {
          "internalType": "uint256",
          "name": "tokenId",
          "type": "uint256"
        },
        {
          "internalType": "uint256",
          "name": "wPeriod",
          "type": "uint256"
        }
      ],
      "name": "createNFT",
      "outputs": [
        {
          "internalType": "uint256",
          "name": "",
          "type": "uint256"
        }
      ],
      "stateMutability": "nonpayable",
      "type": "function"
    },
    {
      "inputs": [
        {
          "internalType": "uint256",
          "name": "tokenId",
          "type": "uint256"
        }
      ],
      "name": "getApproved",
      "outputs": [
        {
          "internalType": "address",
          "name": "",
          "type": "address"
        }
      ],
      "stateMutability": "view",
      "type": "function"
    },
    {
      "inputs": [
        {
          "internalType": "uint256",
          "name": "tokenId",
          "type": "uint256"
        }
      ],
      "name": "getIssueTime",
      "outputs": [
        {
          "internalType": "uint256",
          "name": "",
          "type": "uint256"
        }
      ],
      "stateMutability": "view",
      "type": "function"
    },
    {
      "inputs": [
        {
          "internalType": "uint256",
          "name": "tokenId",
          "type": "uint256"
        }
      ],
      "name": "getWarrantyPeriod",
      "outputs": [
        {
          "internalType": "uint256",
          "name": "",
          "type": "uint256"
        }
      ],
      "stateMutability": "view",
      "type": "function"
    },
    {
      "inputs": [
        {
          "internalType": "address",
          "name": "owner",
          "type": "address"
        },
        {
          "internalType": "address",
          "name": "operator",
          "type": "address"
        }
      ],
      "name": "isApprovedForAll",
      "outputs": [
        {
          "internalType": "bool",
          "name": "",
          "type": "bool"
        }
      ],
      "stateMutability": "view",
      "type": "function"
    },
    {
      "inputs": [
        {
          "internalType": "uint256",
          "name": "",
          "type": "uint256"
        }
      ],
      "name": "issueTime",
      "outputs": [
        {
          "internalType": "uint256",
          "name": "",
          "type": "uint256"
        }
      ],
      "stateMutability": "view",
      "type": "function"
    },
    {
      "inputs": [
        {
          "internalType": "string",
          "name": "tokenURI",
          "type": "string"
        },
        {
          "internalType": "uint256",
          "name": "tokenId",
          "type": "uint256"
        },
        {
          "internalType": "uint256",
          "name": "wPeriod",
          "type": "uint256"
        }
      ],
      "name": "mintNFT",
      "outputs": [
        {
          "internalType": "uint256",
          "name": "",
          "type": "uint256"
        }
      ],
      "stateMutability": "payable",
      "type": "function"
    },
    {
      "inputs": [],
      "name": "name",
      "outputs": [
        {
          "internalType": "string",
          "name": "",
          "type": "string"
        }
      ],
      "stateMutability": "view",
      "type": "function"
    },
    {
      "inputs": [],
      "name": "owner",
      "outputs": [
        {
          "internalType": "address",
          "name": "",
          "type": "address"
        }
      ],
      "stateMutability": "view",
      "type": "function"
    },
    {
      "inputs": [
        {
          "internalType": "uint256",
          "name": "tokenId",
          "type": "uint256"
        }
      ],
      "name": "ownerOf",
      "outputs": [
        {
          "internalType": "address",
          "name": "",
          "type": "address"
        }
      ],
      "stateMutability": "view",
      "type": "function"
    },
    {
      "inputs": [],
      "name": "renounceOwnership",
      "outputs": [],
      "stateMutability": "nonpayable",
      "type": "function"
    },
    {
      "inputs": [
        {
          "internalType": "address",
          "name": "from",
          "type": "address"
        },
        {
          "internalType": "address",
          "name": "to",
          "type": "address"
        },
        {
          "internalType": "uint256",
          "name": "tokenId",
          "type": "uint256"
        }
      ],
      "name": "safeTransferFrom",
      "outputs": [],
      "stateMutability": "nonpayable",
      "type": "function"
    },
    {
      "inputs": [
        {
          "internalType": "address",
          "name": "from",
          "type": "address"
        },
        {
          "internalType": "address",
          "name": "to",
          "type": "address"
        },
        {
          "internalType": "uint256",
          "name": "tokenId",
          "type": "uint256"
        },
        {
          "internalType": "bytes",
          "name": "data",
          "type": "bytes"
        }
      ],
      "name": "safeTransferFrom",
      "outputs": [],
      "stateMutability": "nonpayable",
      "type": "function"
    },
    {
      "inputs": [
        {
          "internalType": "address",
          "name": "operator",
          "type": "address"
        },
        {
          "internalType": "bool",
          "name": "approved",
          "type": "bool"
        }
      ],
      "name": "setApprovalForAll",
      "outputs": [],
      "stateMutability": "nonpayable",
      "type": "function"
    },
    {
      "inputs": [
        {
          "internalType": "bytes4",
          "name": "interfaceId",
          "type": "bytes4"
        }
      ],
      "name": "supportsInterface",
      "outputs": [
        {
          "internalType": "bool",
          "name": "",
          "type": "bool"
        }
      ],
      "stateMutability": "view",
      "type": "function"
    },
    {
      "inputs": [],
      "name": "symbol",
      "outputs": [
        {
          "internalType": "string",
          "name": "",
          "type": "string"
        }
      ],
      "stateMutability": "view",
      "type": "function"
    },
    {
      "inputs": [
        {
          "internalType": "uint256",
          "name": "tokenId",
          "type": "uint256"
        }
      ],
      "name": "tokenURI",
      "outputs": [
        {
          "internalType": "string",
          "name": "",
          "type": "string"
        }
      ],
      "stateMutability": "view",
      "type": "function"
    },
    {
      "inputs": [
        {
          "internalType": "address",
          "name": "from",
          "type": "address"
        },
        {
          "internalType": "address",
          "name": "to",
          "type": "address"
        },
        {
          "internalType": "uint256",
          "name": "tokenId",
          "type": "uint256"
        }
      ],
      "name": "transferFrom",
      "outputs": [],
      "stateMutability": "nonpayable",
      "type": "function"
    },
    {
      "inputs": [
        {
          "internalType": "address",
          "name": "newOwner",
          "type": "address"
        }
      ],
      "name": "transferOwnership",
      "outputs": [],
      "stateMutability": "nonpayable",
      "type": "function"
    },
    {
      "inputs": [
        {
          "internalType": "uint256",
          "name": "",
          "type": "uint256"
        }
      ],
      "name": "warrantyPeriod",
      "outputs": [
        {
          "internalType": "uint256",
          "name": "",
          "type": "uint256"
        }
      ],
      "stateMutability": "view",
      "type": "function"
    },
    {
      "inputs": [],
      "name": "withdraw",
      "outputs": [],
      "stateMutability": "payable",
      "type": "function"
    }
  ],
  "bytecode": "0x6080604052661aa535d3d0c000600a553480156200001c57600080fd5b50604051620039ce380380620039ce833981810160405281019062000042919062000274565b6040518060400160405280600781526020017f47726176697479000000000000000000000000000000000000000000000000008152506040518060400160405280600381526020017f47767400000000000000000000000000000000000000000000000000000000008152508160009081620000bf919062000520565b508060019081620000d1919062000520565b505050620000f4620000e86200013c60201b60201c565b6200014460201b60201c565b80600960006101000a81548173ffffffffffffffffffffffffffffffffffffffff021916908373ffffffffffffffffffffffffffffffffffffffff1602179055505062000607565b600033905090565b6000600760009054906101000a900473ffffffffffffffffffffffffffffffffffffffff16905081600760006101000a81548173ffffffffffffffffffffffffffffffffffffffff021916908373ffffffffffffffffffffffffffffffffffffffff1602179055508173ffffffffffffffffffffffffffffffffffffffff168173ffffffffffffffffffffffffffffffffffffffff167f8be0079c531659141344cd1fd0a4f28419497f9722a3daafe3b4186f6b6457e060405160405180910390a35050565b600080fd5b600073ffffffffffffffffffffffffffffffffffffffff82169050919050565b60006200023c826200020f565b9050919050565b6200024e816200022f565b81146200025a57600080fd5b50565b6000815190506200026e8162000243565b92915050565b6000602082840312156200028d576200028c6200020a565b5b60006200029d848285016200025d565b91505092915050565b600081519050919050565b7f4e487b7100000000000000000000000000000000000000000000000000000000600052604160045260246000fd5b7f4e487b7100000000000000000000000000000000000000000000000000000000600052602260045260246000fd5b600060028204905060018216806200032857607f821691505b6020821081036200033e576200033d620002e0565b5b50919050565b60008190508160005260206000209050919050565b60006020601f8301049050919050565b600082821b905092915050565b600060088302620003a87fffffffffffffffffffffffffffffffffffffffffffffffffffffffffffffffff8262000369565b620003b4868362000369565b95508019841693508086168417925050509392505050565b6000819050919050565b6000819050919050565b600062000401620003fb620003f584620003cc565b620003d6565b620003cc565b9050919050565b6000819050919050565b6200041d83620003e0565b620004356200042c8262000408565b84845462000376565b825550505050565b600090565b6200044c6200043d565b6200045981848462000412565b505050565b5b8181101562000481576200047560008262000442565b6001810190506200045f565b5050565b601f821115620004d0576200049a8162000344565b620004a58462000359565b81016020851015620004b5578190505b620004cd620004c48562000359565b8301826200045e565b50505b505050565b600082821c905092915050565b6000620004f560001984600802620004d5565b1980831691505092915050565b6000620005108383620004e2565b9150826002028217905092915050565b6200052b82620002a6565b67ffffffffffffffff811115620005475762000546620002b1565b5b6200055382546200030f565b6200056082828562000485565b600060209050601f83116001811462000598576000841562000583578287015190505b6200058f858262000502565b865550620005ff565b601f198416620005a88662000344565b60005b82811015620005d257848901518255600182019150602085019450602081019050620005ab565b86831015620005f25784890151620005ee601f891682620004e2565b8355505b6001600288020188555050505b505050505050565b6133b780620006176000396000f3fe6080604052600436106101815760003560e01c80638c00cc96116100d1578063b88d4fde1161008a578063e18b4b5f11610064578063e18b4b5f1461058c578063e985e9c5146105c9578063f2fde38b14610606578063f7feb46e1461062f57610181565b8063b88d4fde146104e9578063c87b56dd14610512578063cec706e41461054f57610181565b80638c00cc96146103d25780638da5cb5b1461040f57806395d89b411461043a578063977922d214610465578063a22cb46514610495578063aa46a400146104be57610181565b806323b872dd1161013e57806342842e0e1161011857806342842e0e146103185780636352211e1461034157806370a082311461037e578063715018a6146103bb57610181565b806323b872dd146102bc5780632d31aaa8146102e55780633ccfd60b1461030e57610181565b806301ffc9a7146101865780630228e77e146101c357806306fdde0314610200578063081812fc1461022b578063095ea7b31461026857806313faede614610291575b600080fd5b34801561019257600080fd5b506101ad60048036038101906101a89190612092565b61066c565b6040516101ba91906120da565b60405180910390f35b3480156101cf57600080fd5b506101ea60048036038101906101e5919061212b565b61074e565b6040516101f79190612167565b60405180910390f35b34801561020c57600080fd5b5061021561076b565b6040516102229190612212565b60405180910390f35b34801561023757600080fd5b50610252600480360381019061024d919061212b565b6107fd565b60405161025f9190612275565b60405180910390f35b34801561027457600080fd5b5061028f600480360381019061028a91906122bc565b610843565b005b34801561029d57600080fd5b506102a661095a565b6040516102b39190612167565b60405180910390f35b3480156102c857600080fd5b506102e360048036038101906102de91906122fc565b610960565b005b3480156102f157600080fd5b5061030c60048036038101906103079190612484565b6109c0565b005b610316610a0b565b005b34801561032457600080fd5b5061033f600480360381019061033a91906122fc565b610a53565b005b34801561034d57600080fd5b506103686004803603810190610363919061212b565b610a73565b6040516103759190612275565b60405180910390f35b34801561038a57600080fd5b506103a560048036038101906103a0919061251b565b610af9565b6040516103b29190612167565b60405180910390f35b3480156103c757600080fd5b506103d0610bb0565b005b3480156103de57600080fd5b506103f960048036038101906103f4919061212b565b610bc4565b6040516104069190612167565b60405180910390f35b34801561041b57600080fd5b50610424610bdc565b6040516104319190612275565b60405180910390f35b34801561044657600080fd5b5061044f610c06565b60405161045c9190612212565b60405180910390f35b61047f600480360381019061047a9190612548565b610c98565b60405161048c9190612167565b60405180910390f35b3480156104a157600080fd5b506104bc60048036038101906104b791906125e3565b610d59565b005b3480156104ca57600080fd5b506104d3610d6f565b6040516104e09190612167565b60405180910390f35b3480156104f557600080fd5b50610510600480360381019061050b91906126c4565b610d7b565b005b34801561051e57600080fd5b506105396004803603810190610534919061212b565b610ddd565b6040516105469190612212565b60405180910390f35b34801561055b57600080fd5b506105766004803603810190610571919061212b565b610eef565b6040516105839190612167565b60405180910390f35b34801561059857600080fd5b506105b360048036038101906105ae9190612548565b610f07565b6040516105c09190612167565b60405180910390f35b3480156105d557600080fd5b506105f060048036038101906105eb9190612747565b610f84565b6040516105fd91906120da565b60405180910390f35b34801561061257600080fd5b5061062d6004803603810190610628919061251b565b611018565b005b34801561063b57600080fd5b506106566004803603810190610651919061212b565b61109b565b6040516106639190612167565b60405180910390f35b60007f80ac58cd000000000000000000000000000000000000000000000000000000007bffffffffffffffffffffffffffffffffffffffffffffffffffffffff1916827bffffffffffffffffffffffffffffffffffffffffffffffffffffffff1916148061073757507f5b5e139f000000000000000000000000000000000000000000000000000000007bffffffffffffffffffffffffffffffffffffffffffffffffffffffff1916827bffffffffffffffffffffffffffffffffffffffffffffffffffffffff1916145b806107475750610746826110b8565b5b9050919050565b6000600b6000838152602001908152602001600020549050919050565b60606000805461077a906127b6565b80601f01602080910402602001604051908101604052809291908181526020018280546107a6906127b6565b80156107f35780601f106107c8576101008083540402835291602001916107f3565b820191906000526020600020905b8154815290600101906020018083116107d657829003601f168201915b5050505050905090565b600061080882611122565b6004600083815260200190815260200160002060009054906101000a900473ffffffffffffffffffffffffffffffffffffffff169050919050565b600061084e82610a73565b90508073ffffffffffffffffffffffffffffffffffffffff168373ffffffffffffffffffffffffffffffffffffffff16036108be576040517f08c379a00000000000000000000000000000000000000000000000000000000081526004016108b590612859565b60405180910390fd5b8073ffffffffffffffffffffffffffffffffffffffff166108dd61116d565b73ffffffffffffffffffffffffffffffffffffffff16148061090c575061090b8161090661116d565b610f84565b5b61094b576040517f08c379a0000000000000000000000000000000000000000000000000000000008152600401610942906128eb565b60405180910390fd5b6109558383611175565b505050565b600a5481565b61097161096b61116d565b8261122e565b6109b0576040517f08c379a00000000000000000000000000000000000000000000000000000000081526004016109a79061297d565b60405180910390fd5b6109bb8383836112c3565b505050565b81600b60008681526020019081526020016000208190555080600c6000868152602001908152602001600020819055506109fa85856115bc565b610a0484846117d9565b5050505050565b610a13611846565b3373ffffffffffffffffffffffffffffffffffffffff166108fc479081150290604051600060405180830381858888f19350505050610a5157600080fd5b565b610a6e83838360405180602001604052806000815250610d7b565b505050565b600080610a7f836118c4565b9050600073ffffffffffffffffffffffffffffffffffffffff168173ffffffffffffffffffffffffffffffffffffffff1603610af0576040517f08c379a0000000000000000000000000000000000000000000000000000000008152600401610ae7906129e9565b60405180910390fd5b80915050919050565b60008073ffffffffffffffffffffffffffffffffffffffff168273ffffffffffffffffffffffffffffffffffffffff1603610b69576040517f08c379a0000000000000000000000000000000000000000000000000000000008152600401610b6090612a7b565b60405180910390fd5b600360008373ffffffffffffffffffffffffffffffffffffffff1673ffffffffffffffffffffffffffffffffffffffff168152602001908152602001600020549050919050565b610bb8611846565b610bc26000611901565b565b600b6020528060005260406000206000915090505481565b6000600760009054906101000a900473ffffffffffffffffffffffffffffffffffffffff16905090565b606060018054610c15906127b6565b80601f0160208091040260200160405190810160405280929190818152602001828054610c41906127b6565b8015610c8e5780601f10610c6357610100808354040283529160200191610c8e565b820191906000526020600020905b815481529060010190602001808311610c7157829003601f168201915b5050505050905090565b6000600a543414610cde576040517f08c379a0000000000000000000000000000000000000000000000000000000008152600401610cd590612ae7565b60405180910390fd5b610ce833846115bc565b42600b60008581526020019081526020016000208190555081600c600085815260200190815260200160002081905550610d2283856117d9565b610d4f600960009054906101000a900473ffffffffffffffffffffffffffffffffffffffff166001610d59565b8290509392505050565b610d6b610d6461116d565b83836119c7565b5050565b60088060000154905081565b610d8c610d8661116d565b8361122e565b610dcb576040517f08c379a0000000000000000000000000000000000000000000000000000000008152600401610dc29061297d565b60405180910390fd5b610dd784848484611b33565b50505050565b6060610de882611122565b6000600660008481526020019081526020016000208054610e08906127b6565b80601f0160208091040260200160405190810160405280929190818152602001828054610e34906127b6565b8015610e815780601f10610e5657610100808354040283529160200191610e81565b820191906000526020600020905b815481529060010190602001808311610e6457829003601f168201915b505050505090506000610e92611b8f565b90506000815103610ea7578192505050610eea565b600082511115610edc578082604051602001610ec4929190612b43565b60405160208183030381529060405292505050610eea565b610ee584611ba6565b925050505b919050565b600c6020528060005260406000206000915090505481565b6000610f1333846115bc565b42600b60008581526020019081526020016000208190555081600c600085815260200190815260200160002081905550610f4d83856117d9565b610f7a600960009054906101000a900473ffffffffffffffffffffffffffffffffffffffff166001610d59565b8290509392505050565b6000600560008473ffffffffffffffffffffffffffffffffffffffff1673ffffffffffffffffffffffffffffffffffffffff16815260200190815260200160002060008373ffffffffffffffffffffffffffffffffffffffff1673ffffffffffffffffffffffffffffffffffffffff16815260200190815260200160002060009054906101000a900460ff16905092915050565b611020611846565b600073ffffffffffffffffffffffffffffffffffffffff168173ffffffffffffffffffffffffffffffffffffffff160361108f576040517f08c379a000000000000000000000000000000000000000000000000000000000815260040161108690612bd9565b60405180910390fd5b61109881611901565b50565b6000600c6000838152602001908152602001600020549050919050565b60007f01ffc9a7000000000000000000000000000000000000000000000000000000007bffffffffffffffffffffffffffffffffffffffffffffffffffffffff1916827bffffffffffffffffffffffffffffffffffffffffffffffffffffffff1916149050919050565b61112b81611c0e565b61116a576040517f08c379a0000000000000000000000000000000000000000000000000000000008152600401611161906129e9565b60405180910390fd5b50565b600033905090565b816004600083815260200190815260200160002060006101000a81548173ffffffffffffffffffffffffffffffffffffffff021916908373ffffffffffffffffffffffffffffffffffffffff160217905550808273ffffffffffffffffffffffffffffffffffffffff166111e883610a73565b73ffffffffffffffffffffffffffffffffffffffff167f8c5be1e5ebec7d5bd14f71427d1e84f3dd0314c0f7b2291e5b200ac8c7c3b92560405160405180910390a45050565b60008061123a83610a73565b90508073ffffffffffffffffffffffffffffffffffffffff168473ffffffffffffffffffffffffffffffffffffffff16148061127c575061127b8185610f84565b5b806112ba57508373ffffffffffffffffffffffffffffffffffffffff166112a2846107fd565b73ffffffffffffffffffffffffffffffffffffffff16145b91505092915050565b8273ffffffffffffffffffffffffffffffffffffffff166112e382610a73565b73ffffffffffffffffffffffffffffffffffffffff1614611339576040517f08c379a000000000000000000000000000000000000000000000000000000000815260040161133090612c6b565b60405180910390fd5b600073ffffffffffffffffffffffffffffffffffffffff168273ffffffffffffffffffffffffffffffffffffffff16036113a8576040517f08c379a000000000000000000000000000000000000000000000000000000000815260040161139f90612cfd565b60405180910390fd5b6113b58383836001611c4f565b8273ffffffffffffffffffffffffffffffffffffffff166113d582610a73565b73ffffffffffffffffffffffffffffffffffffffff161461142b576040517f08c379a000000000000000000000000000000000000000000000000000000000815260040161142290612c6b565b60405180910390fd5b6004600082815260200190815260200160002060006101000a81549073ffffffffffffffffffffffffffffffffffffffff02191690556001600360008573ffffffffffffffffffffffffffffffffffffffff1673ffffffffffffffffffffffffffffffffffffffff168152602001908152602001600020600082825403925050819055506001600360008473ffffffffffffffffffffffffffffffffffffffff1673ffffffffffffffffffffffffffffffffffffffff16815260200190815260200160002060008282540192505081905550816002600083815260200190815260200160002060006101000a81548173ffffffffffffffffffffffffffffffffffffffff021916908373ffffffffffffffffffffffffffffffffffffffff160217905550808273ffffffffffffffffffffffffffffffffffffffff168473ffffffffffffffffffffffffffffffffffffffff167fddf252ad1be2c89b69c2b068fc378daa952ba7f163c4a11628f55a4df523b3ef60405160405180910390a46115b78383836001611c55565b505050565b600073ffffffffffffffffffffffffffffffffffffffff168273ffffffffffffffffffffffffffffffffffffffff160361162b576040517f08c379a000000000000000000000000000000000000000000000000000000000815260040161162290612d69565b60405180910390fd5b61163481611c0e565b15611674576040517f08c379a000000000000000000000000000000000000000000000000000000000815260040161166b90612dd5565b60405180910390fd5b611682600083836001611c4f565b61168b81611c0e565b156116cb576040517f08c379a00000000000000000000000000000000000000000000000000000000081526004016116c290612dd5565b60405180910390fd5b6001600360008473ffffffffffffffffffffffffffffffffffffffff1673ffffffffffffffffffffffffffffffffffffffff16815260200190815260200160002060008282540192505081905550816002600083815260200190815260200160002060006101000a81548173ffffffffffffffffffffffffffffffffffffffff021916908373ffffffffffffffffffffffffffffffffffffffff160217905550808273ffffffffffffffffffffffffffffffffffffffff16600073ffffffffffffffffffffffffffffffffffffffff167fddf252ad1be2c89b69c2b068fc378daa952ba7f163c4a11628f55a4df523b3ef60405160405180910390a46117d5600083836001611c55565b5050565b6117e282611c0e565b611821576040517f08c379a000000000000000000000000000000000000000000000000000000000815260040161181890612e67565b60405180910390fd5b806006600084815260200190815260200160002090816118419190613033565b505050565b61184e61116d565b73ffffffffffffffffffffffffffffffffffffffff1661186c610bdc565b73ffffffffffffffffffffffffffffffffffffffff16146118c2576040517f08c379a00000000000000000000000000000000000000000000000000000000081526004016118b990613151565b60405180910390fd5b565b60006002600083815260200190815260200160002060009054906101000a900473ffffffffffffffffffffffffffffffffffffffff169050919050565b6000600760009054906101000a900473ffffffffffffffffffffffffffffffffffffffff16905081600760006101000a81548173ffffffffffffffffffffffffffffffffffffffff021916908373ffffffffffffffffffffffffffffffffffffffff1602179055508173ffffffffffffffffffffffffffffffffffffffff168173ffffffffffffffffffffffffffffffffffffffff167f8be0079c531659141344cd1fd0a4f28419497f9722a3daafe3b4186f6b6457e060405160405180910390a35050565b8173ffffffffffffffffffffffffffffffffffffffff168373ffffffffffffffffffffffffffffffffffffffff1603611a35576040517f08c379a0000000000000000000000000000000000000000000000000000000008152600401611a2c906131bd565b60405180910390fd5b80600560008573ffffffffffffffffffffffffffffffffffffffff1673ffffffffffffffffffffffffffffffffffffffff16815260200190815260200160002060008473ffffffffffffffffffffffffffffffffffffffff1673ffffffffffffffffffffffffffffffffffffffff16815260200190815260200160002060006101000a81548160ff0219169083151502179055508173ffffffffffffffffffffffffffffffffffffffff168373ffffffffffffffffffffffffffffffffffffffff167f17307eab39ab6107e8899845ad3d59bd9653f200f220920489ca2b5937696c3183604051611b2691906120da565b60405180910390a3505050565b611b3e8484846112c3565b611b4a84848484611c5b565b611b89576040517f08c379a0000000000000000000000000000000000000000000000000000000008152600401611b809061324f565b60405180910390fd5b50505050565b606060405180602001604052806000815250905090565b6060611bb182611122565b6000611bbb611b8f565b90506000815111611bdb5760405180602001604052806000815250611c06565b80611be584611de2565b604051602001611bf6929190612b43565b6040516020818303038152906040525b915050919050565b60008073ffffffffffffffffffffffffffffffffffffffff16611c30836118c4565b73ffffffffffffffffffffffffffffffffffffffff1614159050919050565b50505050565b50505050565b6000611c7c8473ffffffffffffffffffffffffffffffffffffffff16611eb0565b15611dd5578373ffffffffffffffffffffffffffffffffffffffff1663150b7a02611ca561116d565b8786866040518563ffffffff1660e01b8152600401611cc794939291906132c4565b6020604051808303816000875af1925050508015611d0357506040513d601f19601f82011682018060405250810190611d009190613325565b60015b611d85573d8060008114611d33576040519150601f19603f3d011682016040523d82523d6000602084013e611d38565b606091505b506000815103611d7d576040517f08c379a0000000000000000000000000000000000000000000000000000000008152600401611d749061324f565b60405180910390fd5b805181602001fd5b63150b7a0260e01b7bffffffffffffffffffffffffffffffffffffffffffffffffffffffff1916817bffffffffffffffffffffffffffffffffffffffffffffffffffffffff191614915050611dda565b600190505b949350505050565b606060006001611df184611ed3565b01905060008167ffffffffffffffff811115611e1057611e0f612359565b5b6040519080825280601f01601f191660200182016040528015611e425781602001600182028036833780820191505090505b509050600082602001820190505b600115611ea5578080600190039150507f3031323334353637383961626364656600000000000000000000000000000000600a86061a8153600a8581611e9957611e98613352565b5b04945060008503611e50575b819350505050919050565b6000808273ffffffffffffffffffffffffffffffffffffffff163b119050919050565b600080600090507a184f03e93ff9f4daa797ed6e38ed64bf6a1f0100000000000000008310611f31577a184f03e93ff9f4daa797ed6e38ed64bf6a1f0100000000000000008381611f2757611f26613352565b5b0492506040810190505b6d04ee2d6d415b85acef81000000008310611f6e576d04ee2d6d415b85acef81000000008381611f6457611f63613352565b5b0492506020810190505b662386f26fc100008310611f9d57662386f26fc100008381611f9357611f92613352565b5b0492506010810190505b6305f5e1008310611fc6576305f5e1008381611fbc57611fbb613352565b5b0492506008810190505b6127108310611feb576127108381611fe157611fe0613352565b5b0492506004810190505b6064831061200e576064838161200457612003613352565b5b0492506002810190505b600a831061201d576001810190505b80915050919050565b6000604051905090565b600080fd5b600080fd5b60007fffffffff0000000000000000000000000000000000000000000000000000000082169050919050565b61206f8161203a565b811461207a57600080fd5b50565b60008135905061208c81612066565b92915050565b6000602082840312156120a8576120a7612030565b5b60006120b68482850161207d565b91505092915050565b60008115159050919050565b6120d4816120bf565b82525050565b60006020820190506120ef60008301846120cb565b92915050565b6000819050919050565b612108816120f5565b811461211357600080fd5b50565b600081359050612125816120ff565b92915050565b60006020828403121561214157612140612030565b5b600061214f84828501612116565b91505092915050565b612161816120f5565b82525050565b600060208201905061217c6000830184612158565b92915050565b600081519050919050565b600082825260208201905092915050565b60005b838110156121bc5780820151818401526020810190506121a1565b60008484015250505050565b6000601f19601f8301169050919050565b60006121e482612182565b6121ee818561218d565b93506121fe81856020860161219e565b612207816121c8565b840191505092915050565b6000602082019050818103600083015261222c81846121d9565b905092915050565b600073ffffffffffffffffffffffffffffffffffffffff82169050919050565b600061225f82612234565b9050919050565b61226f81612254565b82525050565b600060208201905061228a6000830184612266565b92915050565b61229981612254565b81146122a457600080fd5b50565b6000813590506122b681612290565b92915050565b600080604083850312156122d3576122d2612030565b5b60006122e1858286016122a7565b92505060206122f285828601612116565b9150509250929050565b60008060006060848603121561231557612314612030565b5b6000612323868287016122a7565b9350506020612334868287016122a7565b925050604061234586828701612116565b9150509250925092565b600080fd5b600080fd5b7f4e487b7100000000000000000000000000000000000000000000000000000000600052604160045260246000fd5b612391826121c8565b810181811067ffffffffffffffff821117156123b0576123af612359565b5b80604052505050565b60006123c3612026565b90506123cf8282612388565b919050565b600067ffffffffffffffff8211156123ef576123ee612359565b5b6123f8826121c8565b9050602081019050919050565b82818337600083830152505050565b6000612427612422846123d4565b6123b9565b90508281526020810184848401111561244357612442612354565b5b61244e848285612405565b509392505050565b600082601f83011261246b5761246a61234f565b5b813561247b848260208601612414565b91505092915050565b600080600080600060a086880312156124a05761249f612030565b5b60006124ae888289016122a7565b95505060206124bf88828901612116565b945050604086013567ffffffffffffffff8111156124e0576124df612035565b5b6124ec88828901612456565b93505060606124fd88828901612116565b925050608061250e88828901612116565b9150509295509295909350565b60006020828403121561253157612530612030565b5b600061253f848285016122a7565b91505092915050565b60008060006060848603121561256157612560612030565b5b600084013567ffffffffffffffff81111561257f5761257e612035565b5b61258b86828701612456565b935050602061259c86828701612116565b92505060406125ad86828701612116565b9150509250925092565b6125c0816120bf565b81146125cb57600080fd5b50565b6000813590506125dd816125b7565b92915050565b600080604083850312156125fa576125f9612030565b5b6000612608858286016122a7565b9250506020612619858286016125ce565b9150509250929050565b600067ffffffffffffffff82111561263e5761263d612359565b5b612647826121c8565b9050602081019050919050565b600061266761266284612623565b6123b9565b90508281526020810184848401111561268357612682612354565b5b61268e848285612405565b509392505050565b600082601f8301126126ab576126aa61234f565b5b81356126bb848260208601612654565b91505092915050565b600080600080608085870312156126de576126dd612030565b5b60006126ec878288016122a7565b94505060206126fd878288016122a7565b935050604061270e87828801612116565b925050606085013567ffffffffffffffff81111561272f5761272e612035565b5b61273b87828801612696565b91505092959194509250565b6000806040838503121561275e5761275d612030565b5b600061276c858286016122a7565b925050602061277d858286016122a7565b9150509250929050565b7f4e487b7100000000000000000000000000000000000000000000000000000000600052602260045260246000fd5b600060028204905060018216806127ce57607f821691505b6020821081036127e1576127e0612787565b5b50919050565b7f4552433732313a20617070726f76616c20746f2063757272656e74206f776e6560008201527f7200000000000000000000000000000000000000000000000000000000000000602082015250565b600061284360218361218d565b915061284e826127e7565b604082019050919050565b6000602082019050818103600083015261287281612836565b9050919050565b7f4552433732313a20617070726f76652063616c6c6572206973206e6f7420746f60008201527f6b656e206f776e6572206f7220617070726f76656420666f7220616c6c000000602082015250565b60006128d5603d8361218d565b91506128e082612879565b604082019050919050565b60006020820190508181036000830152612904816128c8565b9050919050565b7f4552433732313a2063616c6c6572206973206e6f7420746f6b656e206f776e6560008201527f72206f7220617070726f76656400000000000000000000000000000000000000602082015250565b6000612967602d8361218d565b91506129728261290b565b604082019050919050565b600060208201905081810360008301526129968161295a565b9050919050565b7f4552433732313a20696e76616c696420746f6b656e2049440000000000000000600082015250565b60006129d360188361218d565b91506129de8261299d565b602082019050919050565b60006020820190508181036000830152612a02816129c6565b9050919050565b7f4552433732313a2061646472657373207a65726f206973206e6f74206120766160008201527f6c6964206f776e65720000000000000000000000000000000000000000000000602082015250565b6000612a6560298361218d565b9150612a7082612a09565b604082019050919050565b60006020820190508181036000830152612a9481612a58565b9050919050565b7f4e65656420746f2073656e6420302e3037352065746865722100000000000000600082015250565b6000612ad160198361218d565b9150612adc82612a9b565b602082019050919050565b60006020820190508181036000830152612b0081612ac4565b9050919050565b600081905092915050565b6000612b1d82612182565b612b278185612b07565b9350612b3781856020860161219e565b80840191505092915050565b6000612b4f8285612b12565b9150612b5b8284612b12565b91508190509392505050565b7f4f776e61626c653a206e6577206f776e657220697320746865207a65726f206160008201527f6464726573730000000000000000000000000000000000000000000000000000602082015250565b6000612bc360268361218d565b9150612bce82612b67565b604082019050919050565b60006020820190508181036000830152612bf281612bb6565b9050919050565b7f4552433732313a207472616e736665722066726f6d20696e636f72726563742060008201527f6f776e6572000000000000000000000000000000000000000000000000000000602082015250565b6000612c5560258361218d565b9150612c6082612bf9565b604082019050919050565b60006020820190508181036000830152612c8481612c48565b9050919050565b7f4552433732313a207472616e7366657220746f20746865207a65726f2061646460008201527f7265737300000000000000000000000000000000000000000000000000000000602082015250565b6000612ce760248361218d565b9150612cf282612c8b565b604082019050919050565b60006020820190508181036000830152612d1681612cda565b9050919050565b7f4552433732313a206d696e7420746f20746865207a65726f2061646472657373600082015250565b6000612d5360208361218d565b9150612d5e82612d1d565b602082019050919050565b60006020820190508181036000830152612d8281612d46565b9050919050565b7f4552433732313a20746f6b656e20616c7265616479206d696e74656400000000600082015250565b6000612dbf601c8361218d565b9150612dca82612d89565b602082019050919050565b60006020820190508181036000830152612dee81612db2565b9050919050565b7f45524337323155524953746f726167653a2055524920736574206f66206e6f6e60008201527f6578697374656e7420746f6b656e000000000000000000000000000000000000602082015250565b6000612e51602e8361218d565b9150612e5c82612df5565b604082019050919050565b60006020820190508181036000830152612e8081612e44565b9050919050565b60008190508160005260206000209050919050565b60006020601f8301049050919050565b600082821b905092915050565b600060088302612ee97fffffffffffffffffffffffffffffffffffffffffffffffffffffffffffffffff82612eac565b612ef38683612eac565b95508019841693508086168417925050509392505050565b6000819050919050565b6000612f30612f2b612f26846120f5565b612f0b565b6120f5565b9050919050565b6000819050919050565b612f4a83612f15565b612f5e612f5682612f37565b848454612eb9565b825550505050565b600090565b612f73612f66565b612f7e818484612f41565b505050565b5b81811015612fa257612f97600082612f6b565b600181019050612f84565b5050565b601f821115612fe757612fb881612e87565b612fc184612e9c565b81016020851015612fd0578190505b612fe4612fdc85612e9c565b830182612f83565b50505b505050565b600082821c905092915050565b600061300a60001984600802612fec565b1980831691505092915050565b60006130238383612ff9565b9150826002028217905092915050565b61303c82612182565b67ffffffffffffffff81111561305557613054612359565b5b61305f82546127b6565b61306a828285612fa6565b600060209050601f83116001811461309d576000841561308b578287015190505b6130958582613017565b8655506130fd565b601f1984166130ab86612e87565b60005b828110156130d3578489015182556001820191506020850194506020810190506130ae565b868310156130f057848901516130ec601f891682612ff9565b8355505b6001600288020188555050505b505050505050565b7f4f776e61626c653a2063616c6c6572206973206e6f7420746865206f776e6572600082015250565b600061313b60208361218d565b915061314682613105565b602082019050919050565b6000602082019050818103600083015261316a8161312e565b9050919050565b7f4552433732313a20617070726f766520746f2063616c6c657200000000000000600082015250565b60006131a760198361218d565b91506131b282613171565b602082019050919050565b600060208201905081810360008301526131d68161319a565b9050919050565b7f4552433732313a207472616e7366657220746f206e6f6e20455243373231526560008201527f63656976657220696d706c656d656e7465720000000000000000000000000000602082015250565b600061323960328361218d565b9150613244826131dd565b604082019050919050565b600060208201905081810360008301526132688161322c565b9050919050565b600081519050919050565b600082825260208201905092915050565b60006132968261326f565b6132a0818561327a565b93506132b081856020860161219e565b6132b9816121c8565b840191505092915050565b60006080820190506132d96000830187612266565b6132e66020830186612266565b6132f36040830185612158565b8181036060830152613305818461328b565b905095945050505050565b60008151905061331f81612066565b92915050565b60006020828403121561333b5761333a612030565b5b600061334984828501613310565b91505092915050565b7f4e487b7100000000000000000000000000000000000000000000000000000000600052601260045260246000fdfea2646970667358221220c7a13d60409ff37b87d5bda7183956a7b12978a4e189498f0d0fda7d00b49df764736f6c63430008110033",
  "linkReferences": {},
  "deployedLinkReferences": {}
}